:100000009001CED2B5C2A0758921758B00120195E1
:0E0010001201007908D2B5C2B5D2B520B5FDF7
:10001E0030B5FD20B5FD30B5FD23F8D28E20B5FDEF
:10002E00C28EE58B9432E820D704D2E08002C2E083
:0F003E00758B00C2D7D9DF20D60720D50BF54927
:0F004D00D2D6D2D57908020024F548C2D5C2D642
:0F005C001201AF1201511200AD12007F12007E8F
:10006B00020013758CB9758AB0D28C308DFDC28CA1
:10007B00C28D2222E875F04195F020D70712016B53
:10008B00D2A08005120180C2A0C2D722F580C2A7E0
:0F009B00C2A6D2A5C2A522F580D2A7C2A6D2A521
:0F00AA00C2A522E54975F00A84ABF075F00A840F
:0F00B9001201CA1200A2E5F01201CA1200A2EB56
:0E00C8001201CA1200A274251200A222E549FC
:1000D60075F00A84ABF075F00A841201CA1200A208
:0F00E600E5F01201CA1200A2EB1201CA1200A229
:1000F50074DF1200A274431200A22274201200A21F
:0F01050074201200A274201200A274201200A213
:0F01140074571200A274651200A2746C1200A23C
:0F01230074631200A2746F1200A2746D1200A216
:0F01320074651200A274201200A274201200A2A1
:1001410074201200A274201200A274201200A222B4
:0F01510074521200A274481200A274201200A26D
:10016000743D1200A274201200A22274201200A278
:1001700074201200A2744F1200A2744E1200A22228
:0F01800074201200A2744F1200A274461200A243
:10018F0074461200A2227438120097740F1200974F
:10019F007401120097740612009774801200972250
:0F01AF0074C012009722C2A5C2A7D2A67580FF06
:1001BE00D2A5E58020E7F0C2A5C2A622932280FE3A
:0A01CE00303132333435363738391A
:00000001FF
