:100000009001CFD2B5C2A0758921758B00120196DF
:0E0010001201017908D2B5C2B5D2B520B5FDF6
:10001E0030B5FD20B5FD30B5FD23F8D28E20B5FDEF
:10002E00C28EE58B9432E820D704D2E08002C2E083
:0F003E00758B00C2D7D9DF20D60A20D50CF54923
:10004D00D2D6020024D2D5020024F548C2D5C2D69C
:0F005D001201B01201521200AE12008012007F89
:10006C00020013758CB9758AB0D28C308DFDC28CA0
:10007C00C28D2222E875F04195F020D70712016C51
:10008C00D2A08005120181C2A0C2D722F580C2A7DE
:0F009C00C2A6D2A5C2A522F580D2A7C2A6D2A520
:0F00AB00C2A522E54975F00A84ABF075F00A840E
:0F00BA001201CB1200A3E5F01201CB1200A3EB51
:0E00C9001201CB1200A374251200A322E549F8
:1000D70075F00A84ABF075F00A841201CB1200A305
:0F00E700E5F01201CB1200A3EB1201CB1200A324
:1000F60074DF1200A374431200A32274201200A31B
:0F01060074201200A374201200A374201200A30F
:0F01150074571200A374651200A3746C1200A338
:0F01240074631200A3746F1200A3746D1200A312
:0F01330074651200A374201200A374201200A39D
:1001420074201200A374201200A374201200A322B0
:0F01520074521200A374481200A374201200A369
:10016100743D1200A374201200A32274201200A374
:1001710074201200A3744F1200A3744E1200A32224
:0F01810074201200A3744F1200A374461200A33F
:1001900074461200A3227438120098740F1200984B
:1001A000740112009874061200987480120098224C
:0F01B00074C012009822C2A5C2A7D2A67580FF04
:1001BF00D2A5E58020E7F0C2A5C2A622932280FE39
:0A01CF003031323334353637383919
:00000001FF
