:10000000900271D280C2A0758921758B00120238CE
:0F0010001201191200881200B07908D280C28044
:0E001F00120078D2802080FD3080FD2080FD10
:10002D003080FD23F8D28E2080FDC28EE58B943278
:0F003D00E820D704D2E08002C2E0758B00C2D762
:10004C00D9DF20D60720D50BF549D2D6D2D57908E1
:0F005C0002002DF548C2D5C2D612016A12025217
:10006B001201B61200C61201C61200ED22758CB930
:0F007B00758AB0D28C308DFDC28CC28D22797007
:0F008A00120078D9FB22E875F04195F020D707D6
:100099001201C6D2A08002C2A0C2D722F590C2B670
:0E00A900C2B5D2B7C2B72274011200A574808E
:0F00B7001200A522F590D2B6C2B5D2B7C2B722B9
:0F00C600E54975F00A84ABF075F00A8412026DFB
:0F00D5001200BBE5F012026D1200BBEB12026DC0
:0F00E4001200BB74251200BB22E54875F00A8498
:0E00F300ABF075F00A8412026D1200BBE5F04E
:0F01010012026D1200BBEB12026D1200BB74DF15
:100110001200BB74431200BB2274201200BB742077
:0F0120001200BB74201200BB74201200BB745776
:0F012F001200BB74651200BB746C1200BB7463CA
:0F013E001200BB746F1200BB746D1200BB7465AE
:0F014D001200BB74201200BB74201200BB742080
:10015C001200BB74201200BB74201200BB22744826
:0F016C001200BB74551200BB744D1200BB7420FF
:0F017B001200BB74261200BB74201200BB745418
:0F018A001200BB74451200BB744D1200BB7450C1
:0F0199001200BB74201200BB74441200BB7449E7
:1001A8001200BB74411200BB74471200BB22745288
:1001B8001200BB74481200BB743D1200BB227420AD
:1001C8001200BB74541200BB743D1200BB22E54AF6
:0F01D80074541200BB74451200BB744D1200BB6F
:0F01E70074501200BB74201200BB743D1200BB99
:1001F60074201200BB1200ED12025274531200BB9F
:0F02060074451200BB74541200BB74201200BB6D
:0F02150074541200BB74451200BB744D1200BB31
:0F02240074501200BB74201200BB743D1200BB5B
:0F02330074201200BB74381200A5740F1200A5BE
:1002420074011200A574061200A574801200A52282
:0F02520074C01200A522C2B7C2B6D2B57590FF14
:10026100D2B7E59020E7F0C2B7C2B522932280FE53
:0A0271003031323334353637383976
:00000001FF
