:1000000090020FD280C2A0758921758B001201D396
:0F00100012011612008A7908D280C28012007A7B
:10001F00D2802080FD3080FD2080FD3080FD23F8D0
:0F002F00D28E2080FDC28EE58B9432E820D7045C
:10003E00D2E08002C2E0758B00C2D7D9DF20D6078E
:10004E0020D50BF549D2D6D2D5790802002AF5482B
:10005E00C2D5C2D61201671201F01201B31200C34B
:0F006E001201C31200EA12008A020016758CB943
:0F007D00758AB0D28C308DFDC28CC28D22797005
:0F008C0012007AD9FB22E875F04195F020D707D2
:10009B001201C3D2A08002C2A0C2D722F590C2B275
:1000AB00C2B1D2B3C2B31201F622F590D2B2C2B131
:1000BB00D2B3C2B31201F622E54975F00A84ABF054
:0F00CB0075F00A8412020B1200B5E5F012020B59
:1000DA001200B5EB12020B1200B574251200B522FC
:0F00EA00E54875F00A84ABF075F00A8412020B3A
:0F00F9001200B5E5F012020B1200B5EB12020B6C
:100108001200B574DF1200B574431200B5227420D2
:0F0118001200B574201200B574201200B57420C7
:0F0127001200B574571200B574651200B5746CF0
:0F0136001200B574631200B5746F1200B5746DCA
:0F0145001200B574651200B574201200B5742055
:0F0154001200B574201200B574201200B574208B
:100163001200B52274481200B574551200B5744DCF
:0F0173001200B574201200B574261200B5742066
:0F0182001200B574541200B574451200B5744DD7
:0F0191001200B574501200B574201200B57444FA
:0F01A0001200B574491200B574411200B57447CE
:1001AF001200B52274521200B574481200B5743D96
:1001BF001200B52274201200B574541200B5743DAC
:1001CF001200B52274381200A7740F1200A7740121
:1001DF001200A774061200A774801200A71201F66E
:1001EF002274C01200A722C2B3C2B2D2B17590FF5F
:1001FF00D2B3E59020E7F0C2B3C2B122932280FEC2
:0A020F0030313233343536373839D8
:00000001FF
