:10000000900212D280C2A0758921758B001201D98D
:1000100012011C1200B31200680202107908D2808B
:10002000C28012007BD2802080FD3080FD2080FDC8
:100030003080FD23F8D28E2080FDC28EE58B943275
:0F004000E820D704D2E08002C2E0758B00C2D75F
:10004F00D9DF20D60720D50BF549D2D6D2D57908DE
:0F005F00020030F548C2D5C2D612016D1201F36E
:10006E001201B91200C91201C91200F022758CB921
:0F007E00758AB0D28C308DFDC28CC28D22797004
:0F008D0012007BD9FB22E875F04195F020D707D0
:10009C001201C9D2A08002C2A0C2D722F590C2B26E
:0E00AC00C2B1D2B3C2B32274011200A8748094
:0F00BA001200A822F590D2B2C2B1D2B3C2B322C3
:0F00C900E54975F00A84ABF075F00A8412020E57
:0F00D8001200BEE5F012020E1200BEEB12020E75
:0F00E7001200BE74251200BE22E54875F00A848F
:0E00F600ABF075F00A8412020E1200BEE5F0A7
:0F01040012020E1200BEEB12020E1200BE74DFCA
:100113001200BE74431200BE2274201200BE74206B
:0F0123001200BE74201200BE74201200BE74576A
:0F0132001200BE74651200BE746C1200BE7463BE
:0F0141001200BE746F1200BE746D1200BE7465A2
:0F0150001200BE74201200BE74201200BE742074
:10015F001200BE74201200BE74201200BE2274481A
:0F016F001200BE74551200BE744D1200BE7420F3
:0F017E001200BE74261200BE74201200BE74540C
:0F018D001200BE74451200BE744D1200BE7450B5
:0F019C001200BE74201200BE74441200BE7449DB
:1001AB001200BE74411200BE74471200BE2274527C
:1001BB001200BE74481200BE743D1200BE227420A1
:1001CB001200BE74541200BE743D1200BE2274386D
:0F01DB001200A8740F1200A874011200A8740675
:0F01EA001200A874801200A82274C01200A8226C
:1001F900C2B3C2B2D2B17590FFD2B3E59020E7F095
:10020900C2B3C2B122932280FE3031323334353643
:030219003738393A
:00000001FF
