:10000000900209D280C2A0758921758B001201D09F
:0E0010001201137908D280C280120077D280CC
:10001E002080FD3080FD2080FD3080FD23F8D28EC3
:0F002E002080FDC28EE58B9432E820D704D2E00B
:0E003D008002C2E0758B00C2D7D9DF20D60743
:10004B0020D50BF549D2D6D2D57908020027F54831
:10005B00C2D5C2D61201641201EA1201B01200C05D
:0F006B001201C01200E7120087020013758CB952
:0F007A00758AB0D28C308DFDC28CC28D22797008
:0F008900120077D9FB22E875F04195F020D707D8
:100098001201C0D2A08002C2A0C2D722F590C2B27B
:1000A800C2B1D2B3C2B31201F022F590D2B2C2B13A
:1000B800D2B3C2B31201F022E54975F00A84ABF05D
:0F00C80075F00A841202051200B2E5F01202056B
:1000D7001200B2EB1202051200B274251200B2220E
:0F00E700E54875F00A84ABF075F00A8412020543
:0F00F6001200B2E5F01202051200B2EB12020581
:100105001200B274DF1200B274431200B2227420DE
:0F0115001200B274201200B274201200B27420D3
:0F0124001200B274571200B274651200B2746CFC
:0F0133001200B274631200B2746F1200B2746DD6
:0F0142001200B274651200B274201200B2742061
:0F0151001200B274201200B274201200B2742097
:100160001200B22274481200B274551200B2744DDB
:0F0170001200B274201200B274261200B2742072
:0F017F001200B274541200B274451200B2744DE3
:0F018E001200B274501200B274201200B2744406
:0F019D001200B274491200B274411200B27447DA
:1001AC001200B22274521200B274481200B2743DA2
:1001BC001200B22274201200B274541200B2743DB8
:1001CC001200B22274381200A4740F1200A474012D
:1001DC001200A474061200A474801200A42274C02D
:0F01EC001200A422C2B3C2B2D2B17590FFD2B337
:1001FB00E59020E7F0C2B3C2B122932280FE3031EA
:08020B0032333435363738393F
:00000001FF
