:10000000900206D280C2A0758921758B001201CDA5
:0F0010001201100202047908D280C28012007A15
:10001F00D2802080FD3080FD2080FD3080FD23F8D0
:0F002F00D28E2080FDC28EE58B9432E820D7045C
:10003E00D2E08002C2E0758B00C2D7D9DF20D6078E
:10004E0020D50BF549D2D6D2D5790802002AF5482B
:10005E00C2D5C2D61201611201E71201AD1200BD66
:0F006E001201BD1200E412008A020016758CB94F
:0F007D00758AB0D28C308DFDC28CC28D22797005
:0F008C0012007AD9FB22E875F04195F020D707D2
:10009B001201BDD2A08002C2A0C2D722F590C2B27B
:0F00AB00C2B1D2B3C2B322F590D2B2C2B1D2B3B6
:0F00BA00C2B322E54975F00A84ABF075F00A84F1
:0F00C9001202021200B2E5F01202021200B2EBB4
:0E00D8001202021200B274251200B222E54894
:1000E60075F00A84ABF075F00A841202021200B2AF
:0F00F600E5F01202021200B2EB1202021200B287
:1001050074DF1200B274431200B22274201200B2DE
:0F01150074201200B274201200B274201200B2D3
:0F01240074571200B274651200B2746C1200B2FC
:0F01330074631200B2746F1200B2746D1200B2D6
:0F01420074651200B274201200B274201200B261
:1001510074201200B274201200B274201200B22274
:0F01610074481200B274551200B2744D1200B2FD
:0F01700074201200B274261200B274201200B272
:0F017F0074541200B274451200B2744D1200B2E3
:0F018E0074501200B274201200B274441200B206
:10019D0074491200B274411200B274471200B222B7
:1001AD0074521200B274481200B2743D1200B222A1
:1001BD0074201200B274541200B2743D1200B222B7
:0F01CD0074381200A7740F1200A774011200A754
:1001DC0074061200A774801200A72274C01200A724
:0E01EC0022C2B3C2B2D2B17590FFD2B3E59079
:1001FA0020E7F0C2B3C2B122932280FE30313233FB
:06020A00343536373839A7
:00000001FF
